:020000040800F2
:100000000050002021020008270200082B020008EF
:100010009D020008A1020008E9020008000000009B
:100020000000000000000000000000003103000894
:10003000350300080000000039030008110B000818
:100040004D0300084D0300084D0300084D03000850
:100050004D0300084D0300084D0300084D03000840
:100060004D0300084D0300084D0300084D03000830
:100070004D0300084D0300084D0300084D03000820
:100080004D0300084D0300084D0300084D03000810
:100090004D0300084D0300084D0300084D03000800
:1000A0004D0300084D0300084D0300084D030008F0
:1000B0004D0300084D0300084D0300084D030008E0
:1000C0004D0300084D0300084D0300084D030008D0
:1000D0004D0300084D0300084D0300084D030008C0
:1000E0004D0300084D0300084D0300080000000008
:1000F0000000000000000000000000000000000000
:1001000000000000000000005FF808F100B583B0B7
:1001100000F050FB304B314A1360314A1360314BD1
:10012000314A03E052F8041B43F8041B2F498B4269
:10013000F8D32A4B1A682E4B9A4200D0FEE7284B80
:100140001A682C4B9A42F9D1234B2B4A13602B4A45
:1001500013602B4B02E0002243F8042B294A934200
:10016000F9D3254B1B6813B9244B1B6803B1FEE779
:1001700000F02CFB694601A800F0ACFA224C234B9E
:10018000E41AA410002504E0204B53F825309847CA
:100190000135AC42F8DC1E4C1E4BE41AA4100025BD
:1001A00004E01C4B53F8253098470135AC42F8DC8D
:1001B0000099019800F0B6FC0546174C174BE41A5D
:1001C000A41004E0013C154B53F824309847002C50
:1001D000F8DC284600F050FABABADECA0000002067
:1001E0008400002000000020D816000888000020AD
:1001F000785634123254769888000020300100205E
:1002000088000020340100207803000878030008EB
:1002100078030008780300087803000878030008D2
:1002200008B5FFF773FF00BEFEE71EF0040F0CBF1A
:10023000EFF30880EFF309807146414A10472DE93A
:10024000F04182B004468846124B5E6B9F6B9D6AFC
:100250001B6B13F0020F03D00E4BDB6A002B0CDB81
:100260000D4800F049FACDF800803B463246294659
:10027000204600F0AFFA00BEFEE74BF6AB6100F09F
:1002800023FB0028ECD0034B4FF00042DA6202B0AF
:10029000BDE8F08100ED00E06816000800BEFEE752
:1002A0001EF0040F0CBFEFF30880EFF309807146D6
:1002B000244A10472DE9F04182B004468846084B95
:1002C0005E6B9F6B9D6A074800F016FACDF80080C0
:1002D0003B4632462946204600F07CFA00BEFEE747
:1002E00000ED00E0781600081EF0040F0CBFEFF3DD
:1002F0000880EFF309807146134A10472DE9F04159
:1003000082B004468846084B5E6B9F6B9D6A074827
:1003100000F0F2F9CDF800803B46324629462046EF
:1003200000F058FA00BEFEE700ED00E08416000879
:1003300000BEFEE700BEFEE700BEFEE7704700001D
:100340003F020008B5020008FD02000800BEFEE7FB
:10035000D81600080000002088000020D8160008E9
:100360000000000000000000880000203401002090
:08037000000000000000000085
:10037800F8B505460C46494B98421BD003F58063F7
:10038800984217D003F58063984213D003F5806331
:1003980098420FD003F5806398420BD003F5806331
:1003A800984207D003F58063984203D0B2213C48B5
:1003B80000F094F9E3786BB1042B0BD0282B09D00B
:1003C800482B07D0142B05D0102B03D01C2B01D0A1
:1003D800182B14D12388BBB1E37803F00F063046FD
:1003E80013F0100F06D0A378013BDBB2022B10D814
:1003F800A078304323785BB32E68002310E0B32144
:10040800274800F06BF9E5E7B421254800F066F9C4
:10041800E2E7BB21224800F061F9E9E76A610133AC
:10042800072B14D801229A40218832EA0101F6D11B
:1004380099000F278F4026EA070600FA01F10E43BC
:10044800E1782829EAD04829E9D12A61E7E72E602E
:100458002388FF2B20D96E68002302E06A6115E02B
:100468000133072B17D803F1080101228A4021889C
:1004780032EA0101F4D199000F278F4026EA0706D6
:1004880000FA01F10E43E1782829E7D0E1784829FC
:10049800E6D12A61E4E76E60F8BD00BF00080140BC
:1004A800A814000838B504460D462A4B98421CD0BB
:1004B80003F58063984218D003F58063984214D0FE
:1004C80003F58063984210D003F5806398420CD0FE
:1004D80003F58063984208D003F58063984204D0FE
:1004E8004FF48F711C4800F0F9F86B1E9BB2012B7A
:1004F80023D9042D21D0082D1FD0102D1DD0202D3B
:100508001BD0402D19D0802D17D0B5F5807F14D081
:10051800B5F5007F11D0B5F5806F0ED0B5F5006F39
:100528000BD0B5F5805F08D0B5F5005F05D0B5F5FF
:10053800804F02D0B5F5004F04D1A3681D4207D003
:10054800012038BD40F21F11034800F0C7F8F4E756
:100558000020F6E700080140A814000870B504461A
:100568000D4616462D4B98421CD003F580639842E1
:1005780018D003F58063984214D003F5806398423D
:1005880010D003F5806398420CD003F5806398423D
:1005980008D003F58063984204D040F28D112048BA
:1005A80000F09CF86B1E9BB2012B23D9042D21D09F
:1005B800082D1FD0102D1DD0202D1BD0402D19D057
:1005C800802D17D0B5F5807F14D0B5F5007F11D0F8
:1005D800B5F5806F0ED0B5F5006F0BD0B5F5805F1F
:1005E80008D0B5F5005F05D0B5F5804F02D0B5F558
:1005F800004F04D1012E08D86EB1256170BD4FF4AB
:10060800C771074800F06AF8F4E740F28F11044810
:1006180000F064F8F0E76561F0E700BF000801400A
:10062800A814000838B504460D460E4B034003B91C
:1006380020B940F24A410C4800F050F8012D05D885
:1006480055B10A4A93691C43946138BD40F24B4145
:10065800054800F043F8F3E7044A936923EA0404E1
:100668009461F2E70200C0FFDC14000800100240A9
:10067800FEE7000008B5034800F054F80120FFF732
:10068800F7FF00BF0C15000808B503460C4A1268AE
:100698005AB10B4A1068033323F003030344094A91
:1006A800934206D8064A136008BD054A06491160F8
:1006B800EFE700F09DFA0C2303604FF0FF30F3E7FB
:1006C8008C000020004C002034010020012303602E
:1006D800014B0B60704700BF0400002008B50A46B4
:1006E8000146024800F004F8FFF7C4FF201500088F
:1006F8000FB400B583B004AB53F8042B01938021E9
:10070800074800F06DFB002804DC03B05DF804EB3B
:1007180004B070470146024800F044F8F5E700BF0E
:100728009400002010B5044600F026FB0146204640
:1007380000F038F80121024800F034F810BD00BF7D
:10074800E41500082DE9F04385B004460F464356EA
:1007580033BB042528462146ABBE0446384605B0BF
:10076800BDE8F08304AA1344002203F8102C4FF0CC
:100778000408E94640464946ABBE8046761B002E33
:10078800ECD03546102E28BF10250023AB42E9D205
:1007980014F9011B04AA1A4402F8101C0133F5E7E6
:1007A8000E46ECE708B5FFF7CDFF08BD08B500F029
:1007B800FDF8024A024B9A6008BD00BF000000081D
:1007C80000ED00E008B500F019F908BDF8B50446D9
:1007D8000D4617461E462748FFF78AFF2168264818
:1007E800FFF786FF61682548FFF782FFA168244864
:1007F800FFF77EFFE1682348FFF77AFF2169224867
:10080800FFF776FF61692148FFF772FFA169204869
:10081800FFF76EFFE1691F48FFF76AFF1E48FFF701
:1008280067FF29461D48FFF763FF1D4CE16A1D4815
:10083800FFF75EFF216B1C48FFF75AFFE16B1B486F
:10084800FFF756FF15F0800F0AD115F4004F0CD1B1
:100858001748FFF74DFF06991648FFF749FFF8BDFF
:1008680039461548FFF744FFEFE731461348FFF7CD
:100878003FFFEDE74C1500085C1500086C150008F3
:100888007C1500088C1500089C150008AC1500089C
:10089800BC150008CC150008DC150008E815000890
:1008A80000ED00E0F8150008081600081816000802
:1008B80048160008501600082816000838160008C0
:1008C80083691A888A4201D0002070470268033A77
:1008D800012A01D900207047023383610120704743
:1008E80082B00023019300932C4A136843F48033A9
:1008F80013602A4B1B6803F400330093019B0133F8
:100908000193009B1BB9019BB3F5A06FF1D1234B59
:100918001B6813F4003F06D001230093009B012BB2
:1009280004D002B0704700230093F7E71C4B1A6805
:1009380042F010021A601A6822F003021A601A685C
:1009480042F002021A60A3F580535A685A605A6846
:100958005A605A6842F480625A605A6822F47C12DB
:100968005A605A6842F4E8125A601A6842F0807273
:100978001A600A4B1B6813F0007FFAD0074B5A68BD
:1009880022F003025A605A6842F002025A60034B8E
:100998005B6803F00C03082BF9D1C2E70010024092
:1009A8000020024008B5FFF79BFF08BD08B5104BB3
:1009B8001A6842F001021A6059680E4A0A405A60E1
:1009C8001A6822F0847222F480321A601A6822F4BB
:1009D80080221A605A6822F4FE025A604FF41F02FD
:1009E8009A60FFF7DFFF044B4FF000629A6008BD82
:1009F800001002400000FFF800ED00E01F4B5B68AC
:100A080003F00C03042B15D0082B17D01BB11C4B7B
:100A18001C4A1A6002E01A4B1A4A1A60174B5B68A4
:100A2800C3F30313184AD35CDAB215490B68D340F1
:100A38000B607047124B134A1A60EFE70F4A53686E
:100A48005268C3F38343023312F4803F05D10F4A3F
:100A580002FB03F30A4A1360E0E7084A526812F4FB
:100A6800003F05D0094A02FB03F3054A1360D5E7A6
:100A7800044A02FB03F3024A1360CFE70010024066
:100A88001C00002000127A000C00002000093D0024
:100A9800704710B5044600F0A9F8204610BD0000C4
:100AA80010B582B00446094B03608160C260102310
:100AB8008DF80730ADF8041002238DF8063001A92F
:100AC8001046FFF755FC204602B010BD9C160008E2
:100AD80008B5012202710189C068FFF73FFD08BD12
:100AE80008B5002202710189C068FFF737FD08BD0B
:100AF80008B5037983F00103037113B1FFF7E8FF29
:100B080008BDFFF7EDFFFBE7034B1B681BB1024A6B
:100B18001368013B136070471401002030B58FB093
:100B280001210420FFF77EFD01210820FFF77AFD4F
:100B38000823ADF8343048238DF8373002238DF878
:100B480036300DA92748FFF713FC274C22462021F1
:100B580009A8FFF7A5FF22464FF4807105A8FFF703
:100B68009FFF22464FF4007101A8FFF799FF4FF449
:100B7800A044002506E005A8FFF7AAFF09A8FFF78B
:100B8800A7FF002508211748FFF78CFC30B9002C77
:100B9800F1D0013C05A8FFF7A3FFEFE704211148B6
:100BA800FFF780FC78B9B4F5801F08D2013409A892
:100BB800FFF796FF05A8FFF78BFF0025E2E709A8D6
:100BC800FFF786FFF6E7A54207D205A8FFF788FFDB
:100BD80009A8FFF785FF0135D4E701A8FFF788FFCB
:100BE8000025F2E700080140000C014000F006B8BB
:100BF800014B1868704700BF20000020024B0146D7
:100C0800186800F003B800BF2000002038B505467A
:100C1800002943D051F8043C0C1F002BB8BFE4183E
:100C280000F0ECF81E4A1368104633B9636014608C
:100C38002846BDE8384000F0E7B8A3420BD9216840
:100C48006218934201BF1A685B6852182260636099
:100C58000460EDE713465A680AB1A242FAD9196846
:100C68005818A0420BD120680144581882421960D4
:100C7800DED110685268014419605A60D8E702D979
:100C88000C232B60D4E7206821188A4201BF116821
:100C980052680918216062605C60C9E738BD00BF0E
:100CA80018010020F8B5CD1C25F0030508350C2DDA
:100CB80038BF0C25002D064601DBA94203D90C23B9
:100CC80033600020F8BD00F099F821490A681446FD
:100CD8009CB9204F3B6823B92146304600F03CF8C8
:100CE80038602946304600F037F8431C23D10C23DE
:100CF8003046336000F088F8E3E723685B1B17D4BD
:100D08000B2B03D923601C44256004E06368A242CE
:100D18000CBF0B605360304600F076F804F10B000E
:100D2800231D20F00700C21ACCD01B1AA350C9E714
:100D380022466468CCE7C41C24F00304A042E3D034
:100D4800211A304600F008F80130DDD1CFE700BFA6
:100D5800180100201C01002038B50023054C054669
:100D680008462360FFF790FC431C02D1236803B1B7
:100D78002B6038BD20010020034613F8012B002A00
:100D8800FBD1181A0138704730B5141E05469BB0C0
:100D9800184605DA8B234FF0FF302B601BB030BDAF
:100DA8004FF40273ADF80C300CBF234604F1FF3347
:100DB800029305934FF6FF7300910491ADF80E303E
:100DC80002461E9B6946284600F080F8431CBCBFBB
:100DD8008B232B60002CE1D00022009B1A70DDE7EA
:100DE80007B5009313460A46014603480068FFF713
:100DF800CBFF03B05DF804FB20000020014800F0A1
:100E0800E9BA00BF28010020014800F0E4BA00BF99
:100E1800280100202DE9F0478E6882469E420C4644
:100E28009146984638D8B1F80CC01CF4906F31D070
:100E380062692568096902EB42026F1A02EBD272F5
:100E4800013355103B449D4238BF1D461CF4806F4A
:100E580030D02946FFF726FF064650B90C234FF03D
:100E6800FF30CAF80030A38943F04003A381BDE8EE
:100E7800F0873A46216900F0BDFAA38923F490630C
:100E880043F08003A38126613E442660464665619F
:100E9800ED1BA560464500D94646324649462068BE
:100EA80000F0B6FAA36800209B1BA36023681E44C9
:100EB8002660DCE72A4600F0C5FA06460028E2D19B
:100EC80021695046FFF7A2FEC8E700002DE9F04F60
:100ED8001E468B899DB01B0607460D4614460ED547
:100EE8000B6963B94021FFF7DDFE2860286120B94E
:100EF8000C233B604FF0FF30C9E040236B610023B7
:100F0800099320238DF8293030234FF0010ADFF8A8
:100F180098918DF82A30039623461E4613F8012B24
:100F28000AB1252AF9D1B6EB040B0BD05B46224651
:100F380029463846FFF76EFF013000F0A380099B71
:100F48005B4409933378002B00F09C8000234FF01A
:100F5800FF32CDE905230136049307938DF853300A
:100F68001A933446052214F8011B4F4800F034FA4E
:100F7800049BC0B9D90644BF20228DF853201A0714
:100F880044BF2B228DF8532032782A2A13D03446B6
:100F980000200A26079A214611F8013B303B092B0D
:100FA8004BD970B914E0A0EB09000AFA00F0184315
:100FB80004902646D5E7039A111D12680391002A6A
:100FC80001DB079204E0524243F0020307920493C4
:100FD80023782E2B0CD163782A2B33D1039B023430
:100FE8001A1D1B680392002BB8BF4FF0FF330593FF
:100FF8002E4E03222178304600F0EEF938B1402316
:10100800801B03FA00F0049B01340343049314F893
:10101800011B062226488DF8281000F0DDF900286B
:1010280038D0244B13BB039B073323F00703083343
:101038000393099B434409936EE706FB02320120A0
:101048000C46A8E700230A261946013405932046D2
:1010580010F8012B303A092A03D9002BC8D0059182
:10106800C6E706FB012101230446F0E703AB009322
:101078002A46114B04A93846AFF30080B0F1FF3F70
:101088008046D6D1AB895B063FF534AF09981DB0D1
:10109800BDE8F08F03AB00932A46074B04A93846F6
:1010A80000F082F8EAE700BFA4160008AA160008B4
:1010B800AE160008000000001D0E00082DE9F047DC
:1010C80091461F468A680B6906469342B8BF134685
:1010D800C9F8003091F843200C46DDF8208012B1A1
:1010E8000133C9F800302368990642BFD9F80030A7
:1010F8000233C9F80030256815F0060507D104F158
:10110800190AE368D9F800209B1AAB4229DC94F845
:1011180043302268003318BF012392062ED404F10D
:10112800430239463046C047013021D02368E5687C
:1011380003F00603042B18BF0025D9F800204FF050
:10114800000908BFAD1AA368226908BF25EAE5753A
:101158009342C4BF9B1AED181A344D451AD100208A
:1011680008E00123524639463046C047013003D1D2
:101178004FF0FF30BDE8F0870135C2E73020E118B5
:1011880081F843005A1C94F845102244023382F82F
:101198004310C4E70123224639463046C047013090
:1011A800E6D009F10109D8E72DE9F04306460C46D7
:1011B80001F14300097E85B06E29984617460C9BBD
:1011C80000F0BB8024D8632939D00AD8002900F060
:1011D800C480582900F0928004F1420584F8421036
:1011E80035E0642901D06929F6D125681A6815F017
:1011F800800F02F104012CD012681960002A03DA6A
:101208002D23524284F84330DFF8C0C10A233FE05F
:10121800732900F0A68008D86F2921D07029DBD166
:10122800226842F02002226003E0752918D078294C
:10123800D2D17822DFF898C184F8452062E01A6894
:1012480004F14205111D1960136884F84230012326
:1012580094E0126815F0400F196018BF12B2CDE77C
:10126800D4F800C01A681CF0800F02F104051D6054
:1012780001D0126803E01CF0400FFAD012886F29E1
:101288000CBF08230A23DFF844C1002184F8431067
:101298006568002DA8BF2168A560A4BF21F00401DE
:1012A80021600AB9002D46D00546B2FBF3F103FBD5
:1012B800112E1CF80EE0934205F801ED39D9082BE0
:1012C8000BD12368DA0708D5236962689A42DEBF22
:1012D800302305F8013C05F1FF35401B2061CDF8AE
:1012E80000803B4603AA21463046FFF7E7FE01305F
:1012F80049D14FF0FF3005B0BDE8F083DFF8CCC02E
:1013080084F845101D68216855F8042B1D600D06EA
:101318000BD5CD0744BF41F0200121601AB92368DD
:1013280023F0200323601023AFE74B0648BF92B297
:10133800EFE70A46B9E70546C1E71A68D4F800C0DE
:10134800151D61691CF0800F1D60136801D01960BC
:1013580003E01CF0400FFAD01980002305462361F2
:10136800BDE71A68111D19601568002162682846D2
:1013780000F032F808B1401B606063682361002305
:1013880084F84330ABE723692A4639463046C047DC
:101398000130AED023689B0713D4E068039B9842C2
:1013A800B8BF1846A7E701234A4639463046C04722
:1013B80001309ED00135E368039A9B1AAB42F2DCF8
:1013C800EBE7002504F11909F5E700BFB516000899
:1013D800C61600087047704710B5C9B2024490425B
:1013E800034601D1002303E01C7801308C42F6D17A
:1013F800184610BD0A44914200F1FF3300D17047EE
:1014080010B511F8014B914203F8014FF9D110BD05
:10141800884210B501EB020302D983421C4607D863
:10142800421E994208D011F8014B02F8014FF8E723
:1014380083189A1A9A4200D110BD14F8011D03F8B6
:10144800011DF7E7F8B5074614460E4621B91146BF
:10145800BDE8F840FFF726BC22B9FFF7D7FB2546C1
:101468002846F8BD00F014F8A0420FD221463846AD
:10147800FFF718FC05460028F2D031462246FFF750
:10148800B9FF31463846FFF7C1FBE9E73546E7E7DC
:1014980051F8043C181F002BBCBF0B58C0187047EC
:1014A8002E2E2F73797374656D2F7372632F737477
:1014B8006D333266312D7374647065726970682F8C
:1014C80073746D3332663130785F6770696F2E637D
:1014D800000000002E2E2F73797374656D2F7372C0
:1014E800632F73746D333266312D73746470657253
:1014F8006970682F73746D3332663130785F726348
:10150800632E630061626F727428292C20657869E4
:1015180074696E672E2E2E006173736572745F7026
:101528006172616D2829206661696C65643A20667C
:10153800696C6520222573222C206C696E65202534
:10154800640A0000537461636B206672616D653ACA
:101558000A000000205230203D2020253038580A4B
:1015680000000000205231203D2020253038580A44
:1015780000000000205232203D2020253038580A33
:1015880000000000205233203D2020253038580A22
:101598000000000020523132203D20253038580A02
:1015A80000000000204C52203D2020253038580AE9
:1015B80000000000205043203D2020253038580AE4
:1015C8000000000020505352203D20253038580A92
:1015D800000000004653522F4641523A0A000000CC
:1015E8002043465352203D2020253038580A000019
:1015F8002048465352203D2020253038580A000004
:101608002044465352203D2020253038580A0000F7
:101618002041465352203D2020253038580A0000EA
:10162800204D4D464152203D20253038580A0000B3
:101638002042464152203D2020253038580A0000DB
:101648004D6973630A000000204C522F4558435FD0
:1016580052455455524E3D20253038580A00000056
:101668005B486172644661756C745D0A0000000035
:101678005B4275734661756C745D0A005B557361F6
:1016880067654661756C745D0A0000000000000023
:1016980000000000990A00089B0A0008232D302B3F
:1016A8002000686C4C00656667454647003031325B
:1016B80033343536373839414243444546003031B2
:0F16C80032333435363738396162636465660012
:1016D800785634129000002000000000000000003E
:1016E80000000000010203040607080900A24A04DA
:1016F800240000200000000000000000000000009E
:1017080000000000000000000000000000000000D1
:1017180000000000000000000000000000000000C1
:1017280000000000000000000000000000000000B1
:1017380000000000000000000000000000000000A1
:101748000000000000000000000000000000000091
:081758000000000032547698F5
:040000050800010DE1
:00000001FF
